{"contracts/ComplianceLog.sol":{"ComplianceLog":{"abi":[{"inputs":[],"stateMutability":"nonpayable","type":"constructor"},{"anonymous":false,"inputs":[{"indexed":true,"internalType":"uint256","name":"id","type":"uint256"},{"indexed":false,"internalType":"string","name":"sessionId","type":"string"},{"indexed":false,"internalType":"string","name":"bugCategory","type":"string"},{"indexed":false,"internalType":"string","name":"filePath","type":"string"},{"indexed":false,"internalType":"string","name":"commitSha","type":"string"},{"indexed":false,"internalType":"uint256","name":"timestamp","type":"uint256"}],"name":"AttestationRecorded","type":"event"},{"inputs":[],"name":"attestationCount","outputs":[{"internalType":"uint256","name":"","type":"uint256"}],"stateMutability":"view","type":"function"},{"inputs":[{"internalType":"uint256","name":"","type":"uint256"}],"name":"attestations","outputs":[{"internalType":"string","name":"sessionId","type":"string"},{"internalType":"string","name":"bugCategory","type":"string"},{"internalType":"string","name":"filePath","type":"string"},{"internalType":"uint256","name":"line","type":"uint256"},{"internalType":"string","name":"errorMessage","type":"string"},{"internalType":"string","name":"fixDescription","type":"string"},{"internalType":"bool","name":"testBeforePassed","type":"bool"},{"internalType":"bool","name":"testAfterPassed","type":"bool"},{"internalType":"string","name":"commitSha","type":"string"},{"internalType":"uint256","name":"timestamp","type":"uint256"},{"internalType":"address","name":"agent","type":"address"}],"stateMutability":"view","type":"function"},{"inputs":[],"name":"authorizedAgent","outputs":[{"internalType":"address","name":"","type":"address"}],"stateMutability":"view","type":"function"},{"inputs":[{"internalType":"uint256","name":"_id","type":"uint256"}],"name":"getAttestation","outputs":[{"components":[{"internalType":"string","name":"sessionId","type":"string"},{"internalType":"string","name":"bugCategory","type":"string"},{"internalType":"string","name":"filePath","type":"string"},{"internalType":"uint256","name":"line","type":"uint256"},{"internalType":"string","name":"errorMessage","type":"string"},{"internalType":"string","name":"fixDescription","type":"string"},{"internalType":"bool","name":"testBeforePassed","type":"bool"},{"internalType":"bool","name":"testAfterPassed","type":"bool"},{"internalType":"string","name":"commitSha","type":"string"},{"internalType":"uint256","name":"timestamp","type":"uint256"},{"internalType":"address","name":"agent","type":"address"}],"internalType":"struct ComplianceLog.Attestation","name":"","type":"tuple"}],"stateMutability":"view","type":"function"},{"inputs":[{"internalType":"string","name":"_sessionId","type":"string"}],"name":"getSessionAttestationCount","outputs":[{"internalType":"uint256","name":"","type":"uint256"}],"stateMutability":"view","type":"function"},{"inputs":[{"internalType":"string","name":"_sessionId","type":"string"}],"name":"getSessionAttestationIds","outputs":[{"internalType":"uint256[]","name":"","type":"uint256[]"}],"stateMutability":"view","type":"function"},{"inputs":[{"internalType":"string","name":"_sessionId","type":"string"},{"internalType":"string","name":"_bugCategory","type":"string"},{"internalType":"string","name":"_filePath","type":"string"},{"internalType":"uint256","name":"_line","type":"uint256"},{"internalType":"string","name":"_errorMessage","type":"string"},{"internalType":"string","name":"_fixDescription","type":"string"},{"internalType":"bool","name":"_testBeforePassed","type":"bool"},{"internalType":"bool","name":"_testAfterPassed","type":"bool"},{"internalType":"string","name":"_commitSha","type":"string"}],"name":"recordAttestation","outputs":[{"internalType":"uint256","name":"","type":"uint256"}],"stateMutability":"nonpayable","type":"function"}],"evm":{"bytecode":{"linkReferences":{},"object":"60a0806040523461002957336080526112a0908161002f8239608051818181607f01526105260152f35b600080fdfe60e0604052600436101561001257600080fd5b60003560e01c806301daf26b14610ee65780631078594b1461042757806329be4db2146101ce57806369d46ac2146101905780636f70b5dd146100d1578063a15b9321146100b35763e2098e2b1461006957600080fd5b346100ae5760003660031901126100ae576040517f00000000000000000000000000000000000000000000000000000000000000006001600160a01b03168152602090f35b600080fd5b346100ae5760003660031901126100ae576020600254604051908152f35b346100ae576020806003193601126100ae576004356001600160401b0381116100ae5761010561010b9136906004016111bd565b90611230565b60405190818382549182815201908192600052846000209060005b8682821061017c57868661013c828803836110b7565b604051928392818401908285525180915260408401929160005b82811061016557505050500390f35b835185528695509381019392810192600101610156565b835485529093019260019283019201610126565b346100ae5760203660031901126100ae576004356001600160401b0381116100ae576101c561010560209236906004016111bd565b54604051908152f35b346100ae5760203660031901126100ae5760043560006101406040516101f38161109b565b60608152606060208201526060604082015282606082015260606080820152606060a08201528260c08201528260e082015260606101008201528261012082015201526002548110156103e25761024990611013565b50604051906102578261109b565b610260816110d8565b825261026e600182016110d8565b602083015261027f600282016110d8565b60408301526003810154606083015261029a600482016110d8565b60808301526102ab600582016110d8565b60a083015260ff6006820154818116151560c085015260081c16151560e08301526102d8600782016110d8565b6101008301526008810154610120830152600960018060a01b03910154166101408201526040518091602082526103bb6103208251610160602086015261018085019061117d565b61038b610377610359610345602087015194601f1995868a83030160408b015261117d565b6040870151858983030160608a015261117d565b606086015160808801526080860151848883030160a089015261117d565b60a0850151838783030160c088015261117d565b9060c0840151151560e086015260e08401511515610100860152610100840151908583030161012086015261117d565b61012082015161014084810191909152909101516001600160a01b03166101608301520390f35b60405162461bcd60e51b815260206004820152601960248201527f436f6d706c69616e63654c6f673a20696e76616c6964206964000000000000006044820152606490fd5b346100ae576101203660031901126100ae576004356001600160401b0381116100ae576104589036906004016111bd565b9060c0526024356001600160401b0381116100ae5761047b9036906004016111bd565b608052906044356001600160401b0381116100ae5761049e9036906004016111bd565b60a052906084356001600160401b0381116100ae576104c19036906004016111bd565b93909260a4356001600160401b0381116100ae576104e39036906004016111bd565b93909560c43580151581036100ae5760e4359081151582036100ae57610104356001600160401b0381116100ae5761051f9036906004016111bd565b90999097907f00000000000000000000000000000000000000000000000000000000000000006001600160a01b03163303610ea1576105bb916105af6002549b6040519761056c8961109b565b610579368b60c0516111ea565b8952610589368d608051906111ea565b60208a015261059b3660a0518d6111ea565b60408a015260643560608a015236916111ea565b608087015236916111ea565b60a0840152151560c0830152151560e08201526105d93686896111ea565b6101008201524261012082015233610140820152600054600160401b8110156109a95780600161060c9201600055611013565b610e8b5781518051906001600160401b0382116109a957819061062f8454611061565b601f8111610e3b575b50602090601f8311600114610dcf57600092610dc4575b50508160011b916000199060031b1c19161781555b60208201518051906001600160401b0382116109a95781906106896001850154611061565b601f8111610d71575b50602090601f8311600114610cff57600092610cf4575b50508160011b916000199060031b1c19161760018201555b60408201518051906001600160401b0382116109a95781906106e66002850154611061565b601f8111610ca1575b50602090601f8311600114610c2f57600092610c24575b50508160011b916000199060031b1c19161760028201555b6060820151600382015560808201518051906001600160401b0382116109a957819061074d6004850154611061565b601f8111610bd1575b50602090601f8311600114610b5f57600092610b54575b50508160011b916000199060031b1c19161760048201555b60a08201518051906001600160401b0382116109a95781906107aa6005850154611061565b601f8111610b01575b50602090601f8311600114610a8f57600092610a84575b50508160011b916000199060031b1c19161760058201555b6006810160c08301511515815460ff61ff0060e0870151151560081b1692169061ffff1916171790556101008201518051906001600160401b0382116109a95761082f6007840154611061565b601f8111610a3d575b50602090601f83116001146109ca576009939291600091836109bf575b50508160011b916000199060031b1c19161760078201555b6101208301516008820155019061014060018060a01b03910151166bffffffffffffffffffffffff60a01b8254161790556040518160c051823760208183810160018152030190208054600160401b8110156109a9576001810180835581101561099357869160005260206000200155600254600019811461097d57602096869561095e61093b9561094c7f87570bad171389fb8a15dd5e52d2c3cbeb9d53c81593dccf023952edb435e57d98600161096c970160025560405198899860a08a5260a08a019060c051611249565b908882038e8a015260805190611249565b90868203604088015260a05190611249565b918483036060860152611249565b4260808301520390a2604051908152f35b634e487b7160e01b600052601160045260246000fd5b634e487b7160e01b600052603260045260246000fd5b634e487b7160e01b600052604160045260246000fd5b015190508b80610855565b906007840160005260206000209160005b601f1985168110610a25575091839160019360099695601f19811610610a0c575b505050811b01600782015561086d565b015160001960f88460031b161c191690558b80806109fc565b919260206001819286850151815501940192016109db565b600784016000526020600020601f840160051c810160208510610a7d575b601f830160051c82018110610a71575050610838565b60008155600101610a5b565b5080610a5b565b015190508a806107ca565b9250600584016000526020600020906000935b601f1984168510610ae6576001945083601f19811610610acd575b505050811b0160058201556107e2565b015160001960f88460031b161c191690558a8080610abd565b81810151835560209485019460019093019290910190610aa2565b909150600584016000526020600020601f840160051c810160208510610b4d575b90849392915b601f830160051c82018110610b3e5750506107b3565b60008155859450600101610b28565b5080610b22565b015190508a8061076d565b9250600484016000526020600020906000935b601f1984168510610bb6576001945083601f19811610610b9d575b505050811b016004820155610785565b015160001960f88460031b161c191690558a8080610b8d565b81810151835560209485019460019093019290910190610b72565b909150600484016000526020600020601f840160051c810160208510610c1d575b90849392915b601f830160051c82018110610c0e575050610756565b60008155859450600101610bf8565b5080610bf2565b015190508a80610706565b9250600284016000526020600020906000935b601f1984168510610c86576001945083601f19811610610c6d575b505050811b01600282015561071e565b015160001960f88460031b161c191690558a8080610c5d565b81810151835560209485019460019093019290910190610c42565b909150600284016000526020600020601f840160051c810160208510610ced575b90849392915b601f830160051c82018110610cde5750506106ef565b60008155859450600101610cc8565b5080610cc2565b015190508a806106a9565b9250600184016000526020600020906000935b601f1984168510610d56576001945083601f19811610610d3d575b505050811b0160018201556106c1565b015160001960f88460031b161c191690558a8080610d2d565b81810151835560209485019460019093019290910190610d12565b909150600184016000526020600020601f840160051c810160208510610dbd575b90849392915b601f830160051c82018110610dae575050610692565b60008155859450600101610d98565b5080610d92565b015190508a8061064f565b9250836000526020600020906000935b601f1984168510610e20576001945083601f19811610610e07575b505050811b018155610664565b015160001960f88460031b161c191690558a8080610dfa565b81810151835560209485019460019093019290910190610ddf565b909150836000526020600020601f840160051c810160208510610e84575b90849392915b601f830160051c82018110610e75575050610638565b60008155859450600101610e5f565b5080610e59565b634e487b7160e01b600052600060045260246000fd5b60405162461bcd60e51b815260206004820152601b60248201527f436f6d706c69616e63654c6f673a20756e617574686f72697a656400000000006044820152606490fd5b346100ae5760203660031901126100ae576004356000548110156100ae57610f0d90611013565b50610f17816110d8565b610f23600183016110d8565b91610f30600282016110d8565b6003820154610f41600484016110d8565b610f4d600585016110d8565b600685015491610f5f600787016110d8565b93600887015496600160a01b6001900390600901541695604051998a99610160808c528b01610f8d9161117d565b8a810360208c0152610f9e9161117d565b89810360408b0152610faf9161117d565b9060608901528781036080890152610fc69161117d565b86810360a0880152610fd79161117d565b9060ff8116151560c087015260081c60ff16151560e08601528481036101008601526110029161117d565b916101208401526101408301520390f35b90600091825481101561104d57600a90838052027f290decd9548b62a8d60345a988386fc84ba6bc95484008f6362f93160ef3e563019190565b634e487b7160e01b83526032600452602483fd5b90600182811c92168015611091575b602083101461107b57565b634e487b7160e01b600052602260045260246000fd5b91607f1691611070565b61016081019081106001600160401b038211176109a957604052565b90601f801991011681019081106001600160401b038211176109a957604052565b906040519182600082546110eb81611061565b9081845260209460019160018116908160001461115b575060011461111c575b50505061111a925003836110b7565b565b600090815285812095935091905b81831061114357505061111a935082010138808061110b565b8554888401850152948501948794509183019161112a565b9250505061111a94925060ff191682840152151560051b82010138808061110b565b919082519283825260005b8481106111a9575050826000602080949584010152601f8019910116010190565b602081830181015184830182015201611188565b9181601f840112156100ae578235916001600160401b0383116100ae57602083818601950101116100ae57565b9291926001600160401b0382116109a95760405191611213601f8201601f1916602001846110b7565b8294818452818301116100ae578281602093846000960137010152565b6020908260405193849283378101600181520301902090565b908060209392818452848401376000828201840152601f01601f191601019056fea2646970667358221220588aa400d08856d7bb10cbacbb2ea37905a5bf322d5b3b6d6073ae9eeb3762e464736f6c63430008180033","opcodes":"PUSH1 0xA0 DUP1 PUSH1 0x40 MSTORE CALLVALUE PUSH2 0x29 JUMPI CALLER PUSH1 0x80 MSTORE PUSH2 0x12A0 SWAP1 DUP2 PUSH2 0x2F DUP3 CODECOPY PUSH1 0x80 MLOAD DUP2 DUP2 DUP2 PUSH1 0x7F ADD MSTORE PUSH2 0x526 ADD MSTORE RETURN JUMPDEST PUSH1 0x0 DUP1 REVERT INVALID PUSH1 0xE0 PUSH1 0x40 MSTORE PUSH1 0x4 CALLDATASIZE LT ISZERO PUSH2 0x12 JUMPI PUSH1 0x0 DUP1 REVERT JUMPDEST PUSH1 0x0 CALLDATALOAD PUSH1 0xE0 SHR DUP1 PUSH4 0x1DAF26B EQ PUSH2 0xEE6 JUMPI DUP1 PUSH4 0x1078594B EQ PUSH2 0x427 JUMPI DUP1 PUSH4 0x29BE4DB2 EQ PUSH2 0x1CE JUMPI DUP1 PUSH4 0x69D46AC2 EQ PUSH2 0x190 JUMPI DUP1 PUSH4 0x6F70B5DD EQ PUSH2 0xD1 JUMPI DUP1 PUSH4 0xA15B9321 EQ PUSH2 0xB3 JUMPI PUSH4 0xE2098E2B EQ PUSH2 0x69 JUMPI PUSH1 0x0 DUP1 REVERT JUMPDEST CALLVALUE PUSH2 0xAE JUMPI PUSH1 0x0 CALLDATASIZE PUSH1 0x3 NOT ADD SLT PUSH2 0xAE JUMPI PUSH1 0x40 MLOAD PUSH32 0x0 PUSH1 0x1 PUSH1 0x1 PUSH1 0xA0 SHL SUB AND DUP2 MSTORE PUSH1 0x20 SWAP1 RETURN JUMPDEST PUSH1 0x0 DUP1 REVERT JUMPDEST CALLVALUE PUSH2 0xAE JUMPI PUSH1 0x0 CALLDATASIZE PUSH1 0x3 NOT ADD SLT PUSH2 0xAE JUMPI PUSH1 0x20 PUSH1 0x2 SLOAD PUSH1 0x40 MLOAD SWAP1 DUP2 MSTORE RETURN JUMPDEST CALLVALUE PUSH2 0xAE JUMPI PUSH1 0x20 DUP1 PUSH1 0x3 NOT CALLDATASIZE ADD SLT PUSH2 0xAE JUMPI PUSH1 0x4 CALLDATALOAD PUSH1 0x1 PUSH1 0x1 PUSH1 0x40 SHL SUB DUP2 GT PUSH2 0xAE JUMPI PUSH2 0x105 PUSH2 0x10B SWAP2 CALLDATASIZE SWAP1 PUSH1 0x4 ADD PUSH2 0x11BD JUMP JUMPDEST SWAP1 PUSH2 0x1230 JUMP JUMPDEST PUSH1 0x40 MLOAD SWAP1 DUP2 DUP4 DUP3 SLOAD SWAP2 DUP3 DUP2 MSTORE ADD SWAP1 DUP2 SWAP3 PUSH1 0x0 MSTORE DUP5 PUSH1 0x0 KECCAK256 SWAP1 PUSH1 0x0 JUMPDEST DUP7 DUP3 DUP3 LT PUSH2 0x17C JUMPI DUP7 DUP7 PUSH2 0x13C DUP3 DUP9 SUB DUP4 PUSH2 0x10B7 JUMP JUMPDEST PUSH1 0x40 MLOAD SWAP3 DUP4 SWAP3 DUP2 DUP5 ADD SWAP1 DUP3 DUP6 MSTORE MLOAD DUP1 SWAP2 MSTORE PUSH1 0x40 DUP5 ADD SWAP3 SWAP2 PUSH1 0x0 JUMPDEST DUP3 DUP2 LT PUSH2 0x165 JUMPI POP POP POP POP SUB SWAP1 RETURN JUMPDEST DUP4 MLOAD DUP6 MSTORE DUP7 SWAP6 POP SWAP4 DUP2 ADD SWAP4 SWAP3 DUP2 ADD SWAP3 PUSH1 0x1 ADD PUSH2 0x156 JUMP JUMPDEST DUP4 SLOAD DUP6 MSTORE SWAP1 SWAP4 ADD SWAP3 PUSH1 0x1 SWAP3 DUP4 ADD SWAP3 ADD PUSH2 0x126 JUMP JUMPDEST CALLVALUE PUSH2 0xAE JUMPI PUSH1 0x20 CALLDATASIZE PUSH1 0x3 NOT ADD SLT PUSH2 0xAE JUMPI PUSH1 0x4 CALLDATALOAD PUSH1 0x1 PUSH1 0x1 PUSH1 0x40 SHL SUB DUP2 GT PUSH2 0xAE JUMPI PUSH2 0x1C5 PUSH2 0x105 PUSH1 0x20 SWAP3 CALLDATASIZE SWAP1 PUSH1 0x4 ADD PUSH2 0x11BD JUMP JUMPDEST SLOAD PUSH1 0x40 MLOAD SWAP1 DUP2 MSTORE RETURN JUMPDEST CALLVALUE PUSH2 0xAE JUMPI PUSH1 0x20 CALLDATASIZE PUSH1 0x3 NOT ADD SLT PUSH2 0xAE JUMPI PUSH1 0x4 CALLDATALOAD PUSH1 0x0 PUSH2 0x140 PUSH1 0x40 MLOAD PUSH2 0x1F3 DUP2 PUSH2 0x109B JUMP JUMPDEST PUSH1 0x60 DUP2 MSTORE PUSH1 0x60 PUSH1 0x20 DUP3 ADD MSTORE PUSH1 0x60 PUSH1 0x40 DUP3 ADD MSTORE DUP3 PUSH1 0x60 DUP3 ADD MSTORE PUSH1 0x60 PUSH1 0x80 DUP3 ADD MSTORE PUSH1 0x60 PUSH1 0xA0 DUP3 ADD MSTORE DUP3 PUSH1 0xC0 DUP3 ADD MSTORE DUP3 PUSH1 0xE0 DUP3 ADD MSTORE PUSH1 0x60 PUSH2 0x100 DUP3 ADD MSTORE DUP3 PUSH2 0x120 DUP3 ADD MSTORE ADD MSTORE PUSH1 0x2 SLOAD DUP2 LT ISZERO PUSH2 0x3E2 JUMPI PUSH2 0x249 SWAP1 PUSH2 0x1013 JUMP JUMPDEST POP PUSH1 0x40 MLOAD SWAP1 PUSH2 0x257 DUP3 PUSH2 0x109B JUMP JUMPDEST PUSH2 0x260 DUP2 PUSH2 0x10D8 JUMP JUMPDEST DUP3 MSTORE PUSH2 0x26E PUSH1 0x1 DUP3 ADD PUSH2 0x10D8 JUMP JUMPDEST PUSH1 0x20 DUP4 ADD MSTORE PUSH2 0x27F PUSH1 0x2 DUP3 ADD PUSH2 0x10D8 JUMP JUMPDEST PUSH1 0x40 DUP4 ADD MSTORE PUSH1 0x3 DUP2 ADD SLOAD PUSH1 0x60 DUP4 ADD MSTORE PUSH2 0x29A PUSH1 0x4 DUP3 ADD PUSH2 0x10D8 JUMP JUMPDEST PUSH1 0x80 DUP4 ADD MSTORE PUSH2 0x2AB PUSH1 0x5 DUP3 ADD PUSH2 0x10D8 JUMP JUMPDEST PUSH1 0xA0 DUP4 ADD MSTORE PUSH1 0xFF PUSH1 0x6 DUP3 ADD SLOAD DUP2 DUP2 AND ISZERO ISZERO PUSH1 0xC0 DUP6 ADD MSTORE PUSH1 0x8 SHR AND ISZERO ISZERO PUSH1 0xE0 DUP4 ADD MSTORE PUSH2 0x2D8 PUSH1 0x7 DUP3 ADD PUSH2 0x10D8 JUMP JUMPDEST PUSH2 0x100 DUP4 ADD MSTORE PUSH1 0x8 DUP2 ADD SLOAD PUSH2 0x120 DUP4 ADD MSTORE PUSH1 0x9 PUSH1 0x1 DUP1 PUSH1 0xA0 SHL SUB SWAP2 ADD SLOAD AND PUSH2 0x140 DUP3 ADD MSTORE PUSH1 0x40 MLOAD DUP1 SWAP2 PUSH1 0x20 DUP3 MSTORE PUSH2 0x3BB PUSH2 0x320 DUP3 MLOAD PUSH2 0x160 PUSH1 0x20 DUP7 ADD MSTORE PUSH2 0x180 DUP6 ADD SWAP1 PUSH2 0x117D JUMP JUMPDEST PUSH2 0x38B PUSH2 0x377 PUSH2 0x359 PUSH2 0x345 PUSH1 0x20 DUP8 ADD MLOAD SWAP5 PUSH1 0x1F NOT SWAP6 DUP7 DUP11 DUP4 SUB ADD PUSH1 0x40 DUP12 ADD MSTORE PUSH2 0x117D JUMP JUMPDEST PUSH1 0x40 DUP8 ADD MLOAD DUP6 DUP10 DUP4 SUB ADD PUSH1 0x60 DUP11 ADD MSTORE PUSH2 0x117D JUMP JUMPDEST PUSH1 0x60 DUP7 ADD MLOAD PUSH1 0x80 DUP9 ADD MSTORE PUSH1 0x80 DUP7 ADD MLOAD DUP5 DUP9 DUP4 SUB ADD PUSH1 0xA0 DUP10 ADD MSTORE PUSH2 0x117D JUMP JUMPDEST PUSH1 0xA0 DUP6 ADD MLOAD DUP4 DUP8 DUP4 SUB ADD PUSH1 0xC0 DUP9 ADD MSTORE PUSH2 0x117D JUMP JUMPDEST SWAP1 PUSH1 0xC0 DUP5 ADD MLOAD ISZERO ISZERO PUSH1 0xE0 DUP7 ADD MSTORE PUSH1 0xE0 DUP5 ADD MLOAD ISZERO ISZERO PUSH2 0x100 DUP7 ADD MSTORE PUSH2 0x100 DUP5 ADD MLOAD SWAP1 DUP6 DUP4 SUB ADD PUSH2 0x120 DUP7 ADD MSTORE PUSH2 0x117D JUMP JUMPDEST PUSH2 0x120 DUP3 ADD MLOAD PUSH2 0x140 DUP5 DUP2 ADD SWAP2 SWAP1 SWAP2 MSTORE SWAP1 SWAP2 ADD MLOAD PUSH1 0x1 PUSH1 0x1 PUSH1 0xA0 SHL SUB AND PUSH2 0x160 DUP4 ADD MSTORE SUB SWAP1 RETURN JUMPDEST PUSH1 0x40 MLOAD PUSH3 0x461BCD PUSH1 0xE5 SHL DUP2 MSTORE PUSH1 0x20 PUSH1 0x4 DUP3 ADD MSTORE PUSH1 0x19 PUSH1 0x24 DUP3 ADD MSTORE PUSH32 0x436F6D706C69616E63654C6F673A20696E76616C696420696400000000000000 PUSH1 0x44 DUP3 ADD MSTORE PUSH1 0x64 SWAP1 REVERT JUMPDEST CALLVALUE PUSH2 0xAE JUMPI PUSH2 0x120 CALLDATASIZE PUSH1 0x3 NOT ADD SLT PUSH2 0xAE JUMPI PUSH1 0x4 CALLDATALOAD PUSH1 0x1 PUSH1 0x1 PUSH1 0x40 SHL SUB DUP2 GT PUSH2 0xAE JUMPI PUSH2 0x458 SWAP1 CALLDATASIZE SWAP1 PUSH1 0x4 ADD PUSH2 0x11BD JUMP JUMPDEST SWAP1 PUSH1 0xC0 MSTORE PUSH1 0x24 CALLDATALOAD PUSH1 0x1 PUSH1 0x1 PUSH1 0x40 SHL SUB DUP2 GT PUSH2 0xAE JUMPI PUSH2 0x47B SWAP1 CALLDATASIZE SWAP1 PUSH1 0x4 ADD PUSH2 0x11BD JUMP JUMPDEST PUSH1 0x80 MSTORE SWAP1 PUSH1 0x44 CALLDATALOAD PUSH1 0x1 PUSH1 0x1 PUSH1 0x40 SHL SUB DUP2 GT PUSH2 0xAE JUMPI PUSH2 0x49E SWAP1 CALLDATASIZE SWAP1 PUSH1 0x4 ADD PUSH2 0x11BD JUMP JUMPDEST PUSH1 0xA0 MSTORE SWAP1 PUSH1 0x84 CALLDATALOAD PUSH1 0x1 PUSH1 0x1 PUSH1 0x40 SHL SUB DUP2 GT PUSH2 0xAE JUMPI PUSH2 0x4C1 SWAP1 CALLDATASIZE SWAP1 PUSH1 0x4 ADD PUSH2 0x11BD JUMP JUMPDEST SWAP4 SWAP1 SWAP3 PUSH1 0xA4 CALLDATALOAD PUSH1 0x1 PUSH1 0x1 PUSH1 0x40 SHL SUB DUP2 GT PUSH2 0xAE JUMPI PUSH2 0x4E3 SWAP1 CALLDATASIZE SWAP1 PUSH1 0x4 ADD PUSH2 0x11BD JUMP JUMPDEST SWAP4 SWAP1 SWAP6 PUSH1 0xC4 CALLDATALOAD DUP1 ISZERO ISZERO DUP2 SUB PUSH2 0xAE JUMPI PUSH1 0xE4 CALLDATALOAD SWAP1 DUP2 ISZERO ISZERO DUP3 SUB PUSH2 0xAE JUMPI PUSH2 0x104 CALLDATALOAD PUSH1 0x1 PUSH1 0x1 PUSH1 0x40 SHL SUB DUP2 GT PUSH2 0xAE JUMPI PUSH2 0x51F SWAP1 CALLDATASIZE SWAP1 PUSH1 0x4 ADD PUSH2 0x11BD JUMP JUMPDEST SWAP1 SWAP10 SWAP1 SWAP8 SWAP1 PUSH32 0x0 PUSH1 0x1 PUSH1 0x1 PUSH1 0xA0 SHL SUB AND CALLER SUB PUSH2 0xEA1 JUMPI PUSH2 0x5BB SWAP2 PUSH2 0x5AF PUSH1 0x2 SLOAD SWAP12 PUSH1 0x40 MLOAD SWAP8 PUSH2 0x56C DUP10 PUSH2 0x109B JUMP JUMPDEST PUSH2 0x579 CALLDATASIZE DUP12 PUSH1 0xC0 MLOAD PUSH2 0x11EA JUMP JUMPDEST DUP10 MSTORE PUSH2 0x589 CALLDATASIZE DUP14 PUSH1 0x80 MLOAD SWAP1 PUSH2 0x11EA JUMP JUMPDEST PUSH1 0x20 DUP11 ADD MSTORE PUSH2 0x59B CALLDATASIZE PUSH1 0xA0 MLOAD DUP14 PUSH2 0x11EA JUMP JUMPDEST PUSH1 0x40 DUP11 ADD MSTORE PUSH1 0x64 CALLDATALOAD PUSH1 0x60 DUP11 ADD MSTORE CALLDATASIZE SWAP2 PUSH2 0x11EA JUMP JUMPDEST PUSH1 0x80 DUP8 ADD MSTORE CALLDATASIZE SWAP2 PUSH2 0x11EA JUMP JUMPDEST PUSH1 0xA0 DUP5 ADD MSTORE ISZERO ISZERO PUSH1 0xC0 DUP4 ADD MSTORE ISZERO ISZERO PUSH1 0xE0 DUP3 ADD MSTORE PUSH2 0x5D9 CALLDATASIZE DUP7 DUP10 PUSH2 0x11EA JUMP JUMPDEST PUSH2 0x100 DUP3 ADD MSTORE TIMESTAMP PUSH2 0x120 DUP3 ADD MSTORE CALLER PUSH2 0x140 DUP3 ADD MSTORE PUSH1 0x0 SLOAD PUSH1 0x1 PUSH1 0x40 SHL DUP2 LT ISZERO PUSH2 0x9A9 JUMPI DUP1 PUSH1 0x1 PUSH2 0x60C SWAP3 ADD PUSH1 0x0 SSTORE PUSH2 0x1013 JUMP JUMPDEST PUSH2 0xE8B JUMPI DUP2 MLOAD DUP1 MLOAD SWAP1 PUSH1 0x1 PUSH1 0x1 PUSH1 0x40 SHL SUB DUP3 GT PUSH2 0x9A9 JUMPI DUP2 SWAP1 PUSH2 0x62F DUP5 SLOAD PUSH2 0x1061 JUMP JUMPDEST PUSH1 0x1F DUP2 GT PUSH2 0xE3B JUMPI JUMPDEST POP PUSH1 0x20 SWAP1 PUSH1 0x1F DUP4 GT PUSH1 0x1 EQ PUSH2 0xDCF JUMPI PUSH1 0x0 SWAP3 PUSH2 0xDC4 JUMPI JUMPDEST POP POP DUP2 PUSH1 0x1 SHL SWAP2 PUSH1 0x0 NOT SWAP1 PUSH1 0x3 SHL SHR NOT AND OR DUP2 SSTORE JUMPDEST PUSH1 0x20 DUP3 ADD MLOAD DUP1 MLOAD SWAP1 PUSH1 0x1 PUSH1 0x1 PUSH1 0x40 SHL SUB DUP3 GT PUSH2 0x9A9 JUMPI DUP2 SWAP1 PUSH2 0x689 PUSH1 0x1 DUP6 ADD SLOAD PUSH2 0x1061 JUMP JUMPDEST PUSH1 0x1F DUP2 GT PUSH2 0xD71 JUMPI JUMPDEST POP PUSH1 0x20 SWAP1 PUSH1 0x1F DUP4 GT PUSH1 0x1 EQ PUSH2 0xCFF JUMPI PUSH1 0x0 SWAP3 PUSH2 0xCF4 JUMPI JUMPDEST POP POP DUP2 PUSH1 0x1 SHL SWAP2 PUSH1 0x0 NOT SWAP1 PUSH1 0x3 SHL SHR NOT AND OR PUSH1 0x1 DUP3 ADD SSTORE JUMPDEST PUSH1 0x40 DUP3 ADD MLOAD DUP1 MLOAD SWAP1 PUSH1 0x1 PUSH1 0x1 PUSH1 0x40 SHL SUB DUP3 GT PUSH2 0x9A9 JUMPI DUP2 SWAP1 PUSH2 0x6E6 PUSH1 0x2 DUP6 ADD SLOAD PUSH2 0x1061 JUMP JUMPDEST PUSH1 0x1F DUP2 GT PUSH2 0xCA1 JUMPI JUMPDEST POP PUSH1 0x20 SWAP1 PUSH1 0x1F DUP4 GT PUSH1 0x1 EQ PUSH2 0xC2F JUMPI PUSH1 0x0 SWAP3 PUSH2 0xC24 JUMPI JUMPDEST POP POP DUP2 PUSH1 0x1 SHL SWAP2 PUSH1 0x0 NOT SWAP1 PUSH1 0x3 SHL SHR NOT AND OR PUSH1 0x2 DUP3 ADD SSTORE JUMPDEST PUSH1 0x60 DUP3 ADD MLOAD PUSH1 0x3 DUP3 ADD SSTORE PUSH1 0x80 DUP3 ADD MLOAD DUP1 MLOAD SWAP1 PUSH1 0x1 PUSH1 0x1 PUSH1 0x40 SHL SUB DUP3 GT PUSH2 0x9A9 JUMPI DUP2 SWAP1 PUSH2 0x74D PUSH1 0x4 DUP6 ADD SLOAD PUSH2 0x1061 JUMP JUMPDEST PUSH1 0x1F DUP2 GT PUSH2 0xBD1 JUMPI JUMPDEST POP PUSH1 0x20 SWAP1 PUSH1 0x1F DUP4 GT PUSH1 0x1 EQ PUSH2 0xB5F JUMPI PUSH1 0x0 SWAP3 PUSH2 0xB54 JUMPI JUMPDEST POP POP DUP2 PUSH1 0x1 SHL SWAP2 PUSH1 0x0 NOT SWAP1 PUSH1 0x3 SHL SHR NOT AND OR PUSH1 0x4 DUP3 ADD SSTORE JUMPDEST PUSH1 0xA0 DUP3 ADD MLOAD DUP1 MLOAD SWAP1 PUSH1 0x1 PUSH1 0x1 PUSH1 0x40 SHL SUB DUP3 GT PUSH2 0x9A9 JUMPI DUP2 SWAP1 PUSH2 0x7AA PUSH1 0x5 DUP6 ADD SLOAD PUSH2 0x1061 JUMP JUMPDEST PUSH1 0x1F DUP2 GT PUSH2 0xB01 JUMPI JUMPDEST POP PUSH1 0x20 SWAP1 PUSH1 0x1F DUP4 GT PUSH1 0x1 EQ PUSH2 0xA8F JUMPI PUSH1 0x0 SWAP3 PUSH2 0xA84 JUMPI JUMPDEST POP POP DUP2 PUSH1 0x1 SHL SWAP2 PUSH1 0x0 NOT SWAP1 PUSH1 0x3 SHL SHR NOT AND OR PUSH1 0x5 DUP3 ADD SSTORE JUMPDEST PUSH1 0x6 DUP2 ADD PUSH1 0xC0 DUP4 ADD MLOAD ISZERO ISZERO DUP2 SLOAD PUSH1 0xFF PUSH2 0xFF00 PUSH1 0xE0 DUP8 ADD MLOAD ISZERO ISZERO PUSH1 0x8 SHL AND SWAP3 AND SWAP1 PUSH2 0xFFFF NOT AND OR OR SWAP1 SSTORE PUSH2 0x100 DUP3 ADD MLOAD DUP1 MLOAD SWAP1 PUSH1 0x1 PUSH1 0x1 PUSH1 0x40 SHL SUB DUP3 GT PUSH2 0x9A9 JUMPI PUSH2 0x82F PUSH1 0x7 DUP5 ADD SLOAD PUSH2 0x1061 JUMP JUMPDEST PUSH1 0x1F DUP2 GT PUSH2 0xA3D JUMPI JUMPDEST POP PUSH1 0x20 SWAP1 PUSH1 0x1F DUP4 GT PUSH1 0x1 EQ PUSH2 0x9CA JUMPI PUSH1 0x9 SWAP4 SWAP3 SWAP2 PUSH1 0x0 SWAP2 DUP4 PUSH2 0x9BF JUMPI JUMPDEST POP POP DUP2 PUSH1 0x1 SHL SWAP2 PUSH1 0x0 NOT SWAP1 PUSH1 0x3 SHL SHR NOT AND OR PUSH1 0x7 DUP3 ADD SSTORE JUMPDEST PUSH2 0x120 DUP4 ADD MLOAD PUSH1 0x8 DUP3 ADD SSTORE ADD SWAP1 PUSH2 0x140 PUSH1 0x1 DUP1 PUSH1 0xA0 SHL SUB SWAP2 ADD MLOAD AND PUSH12 0xFFFFFFFFFFFFFFFFFFFFFFFF PUSH1 0xA0 SHL DUP3 SLOAD AND OR SWAP1 SSTORE PUSH1 0x40 MLOAD DUP2 PUSH1 0xC0 MLOAD DUP3 CALLDATACOPY PUSH1 0x20 DUP2 DUP4 DUP2 ADD PUSH1 0x1 DUP2 MSTORE SUB ADD SWAP1 KECCAK256 DUP1 SLOAD PUSH1 0x1 PUSH1 0x40 SHL DUP2 LT ISZERO PUSH2 0x9A9 JUMPI PUSH1 0x1 DUP2 ADD DUP1 DUP4 SSTORE DUP2 LT ISZERO PUSH2 0x993 JUMPI DUP7 SWAP2 PUSH1 0x0 MSTORE PUSH1 0x20 PUSH1 0x0 KECCAK256 ADD SSTORE PUSH1 0x2 SLOAD PUSH1 0x0 NOT DUP2 EQ PUSH2 0x97D JUMPI PUSH1 0x20 SWAP7 DUP7 SWAP6 PUSH2 0x95E PUSH2 0x93B SWAP6 PUSH2 0x94C PUSH32 0x87570BAD171389FB8A15DD5E52D2C3CBEB9D53C81593DCCF023952EDB435E57D SWAP9 PUSH1 0x1 PUSH2 0x96C SWAP8 ADD PUSH1 0x2 SSTORE PUSH1 0x40 MLOAD SWAP9 DUP10 SWAP9 PUSH1 0xA0 DUP11 MSTORE PUSH1 0xA0 DUP11 ADD SWAP1 PUSH1 0xC0 MLOAD PUSH2 0x1249 JUMP JUMPDEST SWAP1 DUP9 DUP3 SUB DUP15 DUP11 ADD MSTORE PUSH1 0x80 MLOAD SWAP1 PUSH2 0x1249 JUMP JUMPDEST SWAP1 DUP7 DUP3 SUB PUSH1 0x40 DUP9 ADD MSTORE PUSH1 0xA0 MLOAD SWAP1 PUSH2 0x1249 JUMP JUMPDEST SWAP2 DUP5 DUP4 SUB PUSH1 0x60 DUP7 ADD MSTORE PUSH2 0x1249 JUMP JUMPDEST TIMESTAMP PUSH1 0x80 DUP4 ADD MSTORE SUB SWAP1 LOG2 PUSH1 0x40 MLOAD SWAP1 DUP2 MSTORE RETURN JUMPDEST PUSH4 0x4E487B71 PUSH1 0xE0 SHL PUSH1 0x0 MSTORE PUSH1 0x11 PUSH1 0x4 MSTORE PUSH1 0x24 PUSH1 0x0 REVERT JUMPDEST PUSH4 0x4E487B71 PUSH1 0xE0 SHL PUSH1 0x0 MSTORE PUSH1 0x32 PUSH1 0x4 MSTORE PUSH1 0x24 PUSH1 0x0 REVERT JUMPDEST PUSH4 0x4E487B71 PUSH1 0xE0 SHL PUSH1 0x0 MSTORE PUSH1 0x41 PUSH1 0x4 MSTORE PUSH1 0x24 PUSH1 0x0 REVERT JUMPDEST ADD MLOAD SWAP1 POP DUP12 DUP1 PUSH2 0x855 JUMP JUMPDEST SWAP1 PUSH1 0x7 DUP5 ADD PUSH1 0x0 MSTORE PUSH1 0x20 PUSH1 0x0 KECCAK256 SWAP2 PUSH1 0x0 JUMPDEST PUSH1 0x1F NOT DUP6 AND DUP2 LT PUSH2 0xA25 JUMPI POP SWAP2 DUP4 SWAP2 PUSH1 0x1 SWAP4 PUSH1 0x9 SWAP7 SWAP6 PUSH1 0x1F NOT DUP2 AND LT PUSH2 0xA0C JUMPI JUMPDEST POP POP POP DUP2 SHL ADD PUSH1 0x7 DUP3 ADD SSTORE PUSH2 0x86D JUMP JUMPDEST ADD MLOAD PUSH1 0x0 NOT PUSH1 0xF8 DUP5 PUSH1 0x3 SHL AND SHR NOT AND SWAP1 SSTORE DUP12 DUP1 DUP1 PUSH2 0x9FC JUMP JUMPDEST SWAP2 SWAP3 PUSH1 0x20 PUSH1 0x1 DUP2 SWAP3 DUP7 DUP6 ADD MLOAD DUP2 SSTORE ADD SWAP5 ADD SWAP3 ADD PUSH2 0x9DB JUMP JUMPDEST PUSH1 0x7 DUP5 ADD PUSH1 0x0 MSTORE PUSH1 0x20 PUSH1 0x0 KECCAK256 PUSH1 0x1F DUP5 ADD PUSH1 0x5 SHR DUP2 ADD PUSH1 0x20 DUP6 LT PUSH2 0xA7D JUMPI JUMPDEST PUSH1 0x1F DUP4 ADD PUSH1 0x5 SHR DUP3 ADD DUP2 LT PUSH2 0xA71 JUMPI POP POP PUSH2 0x838 JUMP JUMPDEST PUSH1 0x0 DUP2 SSTORE PUSH1 0x1 ADD PUSH2 0xA5B JUMP JUMPDEST POP DUP1 PUSH2 0xA5B JUMP JUMPDEST ADD MLOAD SWAP1 POP DUP11 DUP1 PUSH2 0x7CA JUMP JUMPDEST SWAP3 POP PUSH1 0x5 DUP5 ADD PUSH1 0x0 MSTORE PUSH1 0x20 PUSH1 0x0 KECCAK256 SWAP1 PUSH1 0x0 SWAP4 JUMPDEST PUSH1 0x1F NOT DUP5 AND DUP6 LT PUSH2 0xAE6 JUMPI PUSH1 0x1 SWAP5 POP DUP4 PUSH1 0x1F NOT DUP2 AND LT PUSH2 0xACD JUMPI JUMPDEST POP POP POP DUP2 SHL ADD PUSH1 0x5 DUP3 ADD SSTORE PUSH2 0x7E2 JUMP JUMPDEST ADD MLOAD PUSH1 0x0 NOT PUSH1 0xF8 DUP5 PUSH1 0x3 SHL AND SHR NOT AND SWAP1 SSTORE DUP11 DUP1 DUP1 PUSH2 0xABD JUMP JUMPDEST DUP2 DUP2 ADD MLOAD DUP4 SSTORE PUSH1 0x20 SWAP5 DUP6 ADD SWAP5 PUSH1 0x1 SWAP1 SWAP4 ADD SWAP3 SWAP1 SWAP2 ADD SWAP1 PUSH2 0xAA2 JUMP JUMPDEST SWAP1 SWAP2 POP PUSH1 0x5 DUP5 ADD PUSH1 0x0 MSTORE PUSH1 0x20 PUSH1 0x0 KECCAK256 PUSH1 0x1F DUP5 ADD PUSH1 0x5 SHR DUP2 ADD PUSH1 0x20 DUP6 LT PUSH2 0xB4D JUMPI JUMPDEST SWAP1 DUP5 SWAP4 SWAP3 SWAP2 JUMPDEST PUSH1 0x1F DUP4 ADD PUSH1 0x5 SHR DUP3 ADD DUP2 LT PUSH2 0xB3E JUMPI POP POP PUSH2 0x7B3 JUMP JUMPDEST PUSH1 0x0 DUP2 SSTORE DUP6 SWAP5 POP PUSH1 0x1 ADD PUSH2 0xB28 JUMP JUMPDEST POP DUP1 PUSH2 0xB22 JUMP JUMPDEST ADD MLOAD SWAP1 POP DUP11 DUP1 PUSH2 0x76D JUMP JUMPDEST SWAP3 POP PUSH1 0x4 DUP5 ADD PUSH1 0x0 MSTORE PUSH1 0x20 PUSH1 0x0 KECCAK256 SWAP1 PUSH1 0x0 SWAP4 JUMPDEST PUSH1 0x1F NOT DUP5 AND DUP6 LT PUSH2 0xBB6 JUMPI PUSH1 0x1 SWAP5 POP DUP4 PUSH1 0x1F NOT DUP2 AND LT PUSH2 0xB9D JUMPI JUMPDEST POP POP POP DUP2 SHL ADD PUSH1 0x4 DUP3 ADD SSTORE PUSH2 0x785 JUMP JUMPDEST ADD MLOAD PUSH1 0x0 NOT PUSH1 0xF8 DUP5 PUSH1 0x3 SHL AND SHR NOT AND SWAP1 SSTORE DUP11 DUP1 DUP1 PUSH2 0xB8D JUMP JUMPDEST DUP2 DUP2 ADD MLOAD DUP4 SSTORE PUSH1 0x20 SWAP5 DUP6 ADD SWAP5 PUSH1 0x1 SWAP1 SWAP4 ADD SWAP3 SWAP1 SWAP2 ADD SWAP1 PUSH2 0xB72 JUMP JUMPDEST SWAP1 SWAP2 POP PUSH1 0x4 DUP5 ADD PUSH1 0x0 MSTORE PUSH1 0x20 PUSH1 0x0 KECCAK256 PUSH1 0x1F DUP5 ADD PUSH1 0x5 SHR DUP2 ADD PUSH1 0x20 DUP6 LT PUSH2 0xC1D JUMPI JUMPDEST SWAP1 DUP5 SWAP4 SWAP3 SWAP2 JUMPDEST PUSH1 0x1F DUP4 ADD PUSH1 0x5 SHR DUP3 ADD DUP2 LT PUSH2 0xC0E JUMPI POP POP PUSH2 0x756 JUMP JUMPDEST PUSH1 0x0 DUP2 SSTORE DUP6 SWAP5 POP PUSH1 0x1 ADD PUSH2 0xBF8 JUMP JUMPDEST POP DUP1 PUSH2 0xBF2 JUMP JUMPDEST ADD MLOAD SWAP1 POP DUP11 DUP1 PUSH2 0x706 JUMP JUMPDEST SWAP3 POP PUSH1 0x2 DUP5 ADD PUSH1 0x0 MSTORE PUSH1 0x20 PUSH1 0x0 KECCAK256 SWAP1 PUSH1 0x0 SWAP4 JUMPDEST PUSH1 0x1F NOT DUP5 AND DUP6 LT PUSH2 0xC86 JUMPI PUSH1 0x1 SWAP5 POP DUP4 PUSH1 0x1F NOT DUP2 AND LT PUSH2 0xC6D JUMPI JUMPDEST POP POP POP DUP2 SHL ADD PUSH1 0x2 DUP3 ADD SSTORE PUSH2 0x71E JUMP JUMPDEST ADD MLOAD PUSH1 0x0 NOT PUSH1 0xF8 DUP5 PUSH1 0x3 SHL AND SHR NOT AND SWAP1 SSTORE DUP11 DUP1 DUP1 PUSH2 0xC5D JUMP JUMPDEST DUP2 DUP2 ADD MLOAD DUP4 SSTORE PUSH1 0x20 SWAP5 DUP6 ADD SWAP5 PUSH1 0x1 SWAP1 SWAP4 ADD SWAP3 SWAP1 SWAP2 ADD SWAP1 PUSH2 0xC42 JUMP JUMPDEST SWAP1 SWAP2 POP PUSH1 0x2 DUP5 ADD PUSH1 0x0 MSTORE PUSH1 0x20 PUSH1 0x0 KECCAK256 PUSH1 0x1F DUP5 ADD PUSH1 0x5 SHR DUP2 ADD PUSH1 0x20 DUP6 LT PUSH2 0xCED JUMPI JUMPDEST SWAP1 DUP5 SWAP4 SWAP3 SWAP2 JUMPDEST PUSH1 0x1F DUP4 ADD PUSH1 0x5 SHR DUP3 ADD DUP2 LT PUSH2 0xCDE JUMPI POP POP PUSH2 0x6EF JUMP JUMPDEST PUSH1 0x0 DUP2 SSTORE DUP6 SWAP5 POP PUSH1 0x1 ADD PUSH2 0xCC8 JUMP JUMPDEST POP DUP1 PUSH2 0xCC2 JUMP JUMPDEST ADD MLOAD SWAP1 POP DUP11 DUP1 PUSH2 0x6A9 JUMP JUMPDEST SWAP3 POP PUSH1 0x1 DUP5 ADD PUSH1 0x0 MSTORE PUSH1 0x20 PUSH1 0x0 KECCAK256 SWAP1 PUSH1 0x0 SWAP4 JUMPDEST PUSH1 0x1F NOT DUP5 AND DUP6 LT PUSH2 0xD56 JUMPI PUSH1 0x1 SWAP5 POP DUP4 PUSH1 0x1F NOT DUP2 AND LT PUSH2 0xD3D JUMPI JUMPDEST POP POP POP DUP2 SHL ADD PUSH1 0x1 DUP3 ADD SSTORE PUSH2 0x6C1 JUMP JUMPDEST ADD MLOAD PUSH1 0x0 NOT PUSH1 0xF8 DUP5 PUSH1 0x3 SHL AND SHR NOT AND SWAP1 SSTORE DUP11 DUP1 DUP1 PUSH2 0xD2D JUMP JUMPDEST DUP2 DUP2 ADD MLOAD DUP4 SSTORE PUSH1 0x20 SWAP5 DUP6 ADD SWAP5 PUSH1 0x1 SWAP1 SWAP4 ADD SWAP3 SWAP1 SWAP2 ADD SWAP1 PUSH2 0xD12 JUMP JUMPDEST SWAP1 SWAP2 POP PUSH1 0x1 DUP5 ADD PUSH1 0x0 MSTORE PUSH1 0x20 PUSH1 0x0 KECCAK256 PUSH1 0x1F DUP5 ADD PUSH1 0x5 SHR DUP2 ADD PUSH1 0x20 DUP6 LT PUSH2 0xDBD JUMPI JUMPDEST SWAP1 DUP5 SWAP4 SWAP3 SWAP2 JUMPDEST PUSH1 0x1F DUP4 ADD PUSH1 0x5 SHR DUP3 ADD DUP2 LT PUSH2 0xDAE JUMPI POP POP PUSH2 0x692 JUMP JUMPDEST PUSH1 0x0 DUP2 SSTORE DUP6 SWAP5 POP PUSH1 0x1 ADD PUSH2 0xD98 JUMP JUMPDEST POP DUP1 PUSH2 0xD92 JUMP JUMPDEST ADD MLOAD SWAP1 POP DUP11 DUP1 PUSH2 0x64F JUMP JUMPDEST SWAP3 POP DUP4 PUSH1 0x0 MSTORE PUSH1 0x20 PUSH1 0x0 KECCAK256 SWAP1 PUSH1 0x0 SWAP4 JUMPDEST PUSH1 0x1F NOT DUP5 AND DUP6 LT PUSH2 0xE20 JUMPI PUSH1 0x1 SWAP5 POP DUP4 PUSH1 0x1F NOT DUP2 AND LT PUSH2 0xE07 JUMPI JUMPDEST POP POP POP DUP2 SHL ADD DUP2 SSTORE PUSH2 0x664 JUMP JUMPDEST ADD MLOAD PUSH1 0x0 NOT PUSH1 0xF8 DUP5 PUSH1 0x3 SHL AND SHR NOT AND SWAP1 SSTORE DUP11 DUP1 DUP1 PUSH2 0xDFA JUMP JUMPDEST DUP2 DUP2 ADD MLOAD DUP4 SSTORE PUSH1 0x20 SWAP5 DUP6 ADD SWAP5 PUSH1 0x1 SWAP1 SWAP4 ADD SWAP3 SWAP1 SWAP2 ADD SWAP1 PUSH2 0xDDF JUMP JUMPDEST SWAP1 SWAP2 POP DUP4 PUSH1 0x0 MSTORE PUSH1 0x20 PUSH1 0x0 KECCAK256 PUSH1 0x1F DUP5 ADD PUSH1 0x5 SHR DUP2 ADD PUSH1 0x20 DUP6 LT PUSH2 0xE84 JUMPI JUMPDEST SWAP1 DUP5 SWAP4 SWAP3 SWAP2 JUMPDEST PUSH1 0x1F DUP4 ADD PUSH1 0x5 SHR DUP3 ADD DUP2 LT PUSH2 0xE75 JUMPI POP POP PUSH2 0x638 JUMP JUMPDEST PUSH1 0x0 DUP2 SSTORE DUP6 SWAP5 POP PUSH1 0x1 ADD PUSH2 0xE5F JUMP JUMPDEST POP DUP1 PUSH2 0xE59 JUMP JUMPDEST PUSH4 0x4E487B71 PUSH1 0xE0 SHL PUSH1 0x0 MSTORE PUSH1 0x0 PUSH1 0x4 MSTORE PUSH1 0x24 PUSH1 0x0 REVERT JUMPDEST PUSH1 0x40 MLOAD PUSH3 0x461BCD PUSH1 0xE5 SHL DUP2 MSTORE PUSH1 0x20 PUSH1 0x4 DUP3 ADD MSTORE PUSH1 0x1B PUSH1 0x24 DUP3 ADD MSTORE PUSH32 0x436F6D706C69616E63654C6F673A20756E617574686F72697A65640000000000 PUSH1 0x44 DUP3 ADD MSTORE PUSH1 0x64 SWAP1 REVERT JUMPDEST CALLVALUE PUSH2 0xAE JUMPI PUSH1 0x20 CALLDATASIZE PUSH1 0x3 NOT ADD SLT PUSH2 0xAE JUMPI PUSH1 0x4 CALLDATALOAD PUSH1 0x0 SLOAD DUP2 LT ISZERO PUSH2 0xAE JUMPI PUSH2 0xF0D SWAP1 PUSH2 0x1013 JUMP JUMPDEST POP PUSH2 0xF17 DUP2 PUSH2 0x10D8 JUMP JUMPDEST PUSH2 0xF23 PUSH1 0x1 DUP4 ADD PUSH2 0x10D8 JUMP JUMPDEST SWAP2 PUSH2 0xF30 PUSH1 0x2 DUP3 ADD PUSH2 0x10D8 JUMP JUMPDEST PUSH1 0x3 DUP3 ADD SLOAD PUSH2 0xF41 PUSH1 0x4 DUP5 ADD PUSH2 0x10D8 JUMP JUMPDEST PUSH2 0xF4D PUSH1 0x5 DUP6 ADD PUSH2 0x10D8 JUMP JUMPDEST PUSH1 0x6 DUP6 ADD SLOAD SWAP2 PUSH2 0xF5F PUSH1 0x7 DUP8 ADD PUSH2 0x10D8 JUMP JUMPDEST SWAP4 PUSH1 0x8 DUP8 ADD SLOAD SWAP7 PUSH1 0x1 PUSH1 0xA0 SHL PUSH1 0x1 SWAP1 SUB SWAP1 PUSH1 0x9 ADD SLOAD AND SWAP6 PUSH1 0x40 MLOAD SWAP10 DUP11 SWAP10 PUSH2 0x160 DUP1 DUP13 MSTORE DUP12 ADD PUSH2 0xF8D SWAP2 PUSH2 0x117D JUMP JUMPDEST DUP11 DUP2 SUB PUSH1 0x20 DUP13 ADD MSTORE PUSH2 0xF9E SWAP2 PUSH2 0x117D JUMP JUMPDEST DUP10 DUP2 SUB PUSH1 0x40 DUP12 ADD MSTORE PUSH2 0xFAF SWAP2 PUSH2 0x117D JUMP JUMPDEST SWAP1 PUSH1 0x60 DUP10 ADD MSTORE DUP8 DUP2 SUB PUSH1 0x80 DUP10 ADD MSTORE PUSH2 0xFC6 SWAP2 PUSH2 0x117D JUMP JUMPDEST DUP7 DUP2 SUB PUSH1 0xA0 DUP9 ADD MSTORE PUSH2 0xFD7 SWAP2 PUSH2 0x117D JUMP JUMPDEST SWAP1 PUSH1 0xFF DUP2 AND ISZERO ISZERO PUSH1 0xC0 DUP8 ADD MSTORE PUSH1 0x8 SHR PUSH1 0xFF AND ISZERO ISZERO PUSH1 0xE0 DUP7 ADD MSTORE DUP5 DUP2 SUB PUSH2 0x100 DUP7 ADD MSTORE PUSH2 0x1002 SWAP2 PUSH2 0x117D JUMP JUMPDEST SWAP2 PUSH2 0x120 DUP5 ADD MSTORE PUSH2 0x140 DUP4 ADD MSTORE SUB SWAP1 RETURN JUMPDEST SWAP1 PUSH1 0x0 SWAP2 DUP3 SLOAD DUP2 LT ISZERO PUSH2 0x104D JUMPI PUSH1 0xA SWAP1 DUP4 DUP1 MSTORE MUL PUSH32 0x290DECD9548B62A8D60345A988386FC84BA6BC95484008F6362F93160EF3E563 ADD SWAP2 SWAP1 JUMP JUMPDEST PUSH4 0x4E487B71 PUSH1 0xE0 SHL DUP4 MSTORE PUSH1 0x32 PUSH1 0x4 MSTORE PUSH1 0x24 DUP4 REVERT JUMPDEST SWAP1 PUSH1 0x1 DUP3 DUP2 SHR SWAP3 AND DUP1 ISZERO PUSH2 0x1091 JUMPI JUMPDEST PUSH1 0x20 DUP4 LT EQ PUSH2 0x107B JUMPI JUMP JUMPDEST PUSH4 0x4E487B71 PUSH1 0xE0 SHL PUSH1 0x0 MSTORE PUSH1 0x22 PUSH1 0x4 MSTORE PUSH1 0x24 PUSH1 0x0 REVERT JUMPDEST SWAP2 PUSH1 0x7F AND SWAP2 PUSH2 0x1070 JUMP JUMPDEST PUSH2 0x160 DUP2 ADD SWAP1 DUP2 LT PUSH1 0x1 PUSH1 0x1 PUSH1 0x40 SHL SUB DUP3 GT OR PUSH2 0x9A9 JUMPI PUSH1 0x40 MSTORE JUMP JUMPDEST SWAP1 PUSH1 0x1F DUP1 NOT SWAP2 ADD AND DUP2 ADD SWAP1 DUP2 LT PUSH1 0x1 PUSH1 0x1 PUSH1 0x40 SHL SUB DUP3 GT OR PUSH2 0x9A9 JUMPI PUSH1 0x40 MSTORE JUMP JUMPDEST SWAP1 PUSH1 0x40 MLOAD SWAP2 DUP3 PUSH1 0x0 DUP3 SLOAD PUSH2 0x10EB DUP2 PUSH2 0x1061 JUMP JUMPDEST SWAP1 DUP2 DUP5 MSTORE PUSH1 0x20 SWAP5 PUSH1 0x1 SWAP2 PUSH1 0x1 DUP2 AND SWAP1 DUP2 PUSH1 0x0 EQ PUSH2 0x115B JUMPI POP PUSH1 0x1 EQ PUSH2 0x111C JUMPI JUMPDEST POP POP POP PUSH2 0x111A SWAP3 POP SUB DUP4 PUSH2 0x10B7 JUMP JUMPDEST JUMP JUMPDEST PUSH1 0x0 SWAP1 DUP2 MSTORE DUP6 DUP2 KECCAK256 SWAP6 SWAP4 POP SWAP2 SWAP1 JUMPDEST DUP2 DUP4 LT PUSH2 0x1143 JUMPI POP POP PUSH2 0x111A SWAP4 POP DUP3 ADD ADD CODESIZE DUP1 DUP1 PUSH2 0x110B JUMP JUMPDEST DUP6 SLOAD DUP9 DUP5 ADD DUP6 ADD MSTORE SWAP5 DUP6 ADD SWAP5 DUP8 SWAP5 POP SWAP2 DUP4 ADD SWAP2 PUSH2 0x112A JUMP JUMPDEST SWAP3 POP POP POP PUSH2 0x111A SWAP5 SWAP3 POP PUSH1 0xFF NOT AND DUP3 DUP5 ADD MSTORE ISZERO ISZERO PUSH1 0x5 SHL DUP3 ADD ADD CODESIZE DUP1 DUP1 PUSH2 0x110B JUMP JUMPDEST SWAP2 SWAP1 DUP3 MLOAD SWAP3 DUP4 DUP3 MSTORE PUSH1 0x0 JUMPDEST DUP5 DUP2 LT PUSH2 0x11A9 JUMPI POP POP DUP3 PUSH1 0x0 PUSH1 0x20 DUP1 SWAP5 SWAP6 DUP5 ADD ADD MSTORE PUSH1 0x1F DUP1 NOT SWAP2 ADD AND ADD ADD SWAP1 JUMP JUMPDEST PUSH1 0x20 DUP2 DUP4 ADD DUP2 ADD MLOAD DUP5 DUP4 ADD DUP3 ADD MSTORE ADD PUSH2 0x1188 JUMP JUMPDEST SWAP2 DUP2 PUSH1 0x1F DUP5 ADD SLT ISZERO PUSH2 0xAE JUMPI DUP3 CALLDATALOAD SWAP2 PUSH1 0x1 PUSH1 0x1 PUSH1 0x40 SHL SUB DUP4 GT PUSH2 0xAE JUMPI PUSH1 0x20 DUP4 DUP2 DUP7 ADD SWAP6 ADD ADD GT PUSH2 0xAE JUMPI JUMP JUMPDEST SWAP3 SWAP2 SWAP3 PUSH1 0x1 PUSH1 0x1 PUSH1 0x40 SHL SUB DUP3 GT PUSH2 0x9A9 JUMPI PUSH1 0x40 MLOAD SWAP2 PUSH2 0x1213 PUSH1 0x1F DUP3 ADD PUSH1 0x1F NOT AND PUSH1 0x20 ADD DUP5 PUSH2 0x10B7 JUMP JUMPDEST DUP3 SWAP5 DUP2 DUP5 MSTORE DUP2 DUP4 ADD GT PUSH2 0xAE JUMPI DUP3 DUP2 PUSH1 0x20 SWAP4 DUP5 PUSH1 0x0 SWAP7 ADD CALLDATACOPY ADD ADD MSTORE JUMP JUMPDEST PUSH1 0x20 SWAP1 DUP3 PUSH1 0x40 MLOAD SWAP4 DUP5 SWAP3 DUP4 CALLDATACOPY DUP2 ADD PUSH1 0x1 DUP2 MSTORE SUB ADD SWAP1 KECCAK256 SWAP1 JUMP JUMPDEST SWAP1 DUP1 PUSH1 0x20 SWAP4 SWAP3 DUP2 DUP5 MSTORE DUP5 DUP5 ADD CALLDATACOPY PUSH1 0x0 DUP3 DUP3 ADD DUP5 ADD MSTORE PUSH1 0x1F ADD PUSH1 0x1F NOT AND ADD ADD SWAP1 JUMP INVALID LOG2 PUSH5 0x6970667358 0x22 SLT KECCAK256 PC DUP11 LOG4 STOP 0xD0 DUP9 JUMP 0xD7 0xBB LT 0xCB 0xAC 0xBB 0x2E LOG3 PUSH26 0x5A5BF322D5B3B6D6073AE9EEB3762E464736F6C634300081800 CALLER "},"methodIdentifiers":{"attestationCount()":"a15b9321","attestations(uint256)":"01daf26b","authorizedAgent()":"e2098e2b","getAttestation(uint256)":"29be4db2","getSessionAttestationCount(string)":"69d46ac2","getSessionAttestationIds(string)":"6f70b5dd","recordAttestation(string,string,string,uint256,string,string,bool,bool,string)":"1078594b"}}}}}